{
    "abi": [
        {
            "type": "constructor",
            "inputs": [],
            "stateMutability": "nonpayable"
        },
        {
            "type": "function",
            "name": "approve",
            "inputs": [
                {
                    "name": "to",
                    "type": "address",
                    "internalType": "address"
                },
                {
                    "name": "tokenId",
                    "type": "uint256",
                    "internalType": "uint256"
                }
            ],
            "outputs": [],
            "stateMutability": "nonpayable"
        },
        {
            "type": "function",
            "name": "balanceOf",
            "inputs": [
                {
                    "name": "owner",
                    "type": "address",
                    "internalType": "address"
                }
            ],
            "outputs": [
                {
                    "name": "",
                    "type": "uint256",
                    "internalType": "uint256"
                }
            ],
            "stateMutability": "view"
        },
        {
            "type": "function",
            "name": "getApproved",
            "inputs": [
                {
                    "name": "tokenId",
                    "type": "uint256",
                    "internalType": "uint256"
                }
            ],
            "outputs": [
                {
                    "name": "",
                    "type": "address",
                    "internalType": "address"
                }
            ],
            "stateMutability": "view"
        },
        {
            "type": "function",
            "name": "getTokenCounter",
            "inputs": [],
            "outputs": [
                {
                    "name": "",
                    "type": "uint256",
                    "internalType": "uint256"
                }
            ],
            "stateMutability": "view"
        },
        {
            "type": "function",
            "name": "getTokenIdToState",
            "inputs": [
                {
                    "name": "tokenId",
                    "type": "uint256",
                    "internalType": "uint256"
                }
            ],
            "outputs": [
                {
                    "name": "",
                    "type": "uint8",
                    "internalType": "enum GameSessionNft.NFTState"
                }
            ],
            "stateMutability": "view"
        },
        {
            "type": "function",
            "name": "isApprovedForAll",
            "inputs": [
                {
                    "name": "owner",
                    "type": "address",
                    "internalType": "address"
                },
                {
                    "name": "operator",
                    "type": "address",
                    "internalType": "address"
                }
            ],
            "outputs": [
                {
                    "name": "",
                    "type": "bool",
                    "internalType": "bool"
                }
            ],
            "stateMutability": "view"
        },
        {
            "type": "function",
            "name": "mintNftActive",
            "inputs": [
                {
                    "name": "tokenUri",
                    "type": "string",
                    "internalType": "string"
                }
            ],
            "outputs": [],
            "stateMutability": "nonpayable"
        },
        {
            "type": "function",
            "name": "mintNftComplete",
            "inputs": [
                {
                    "name": "tokenUri",
                    "type": "string",
                    "internalType": "string"
                }
            ],
            "outputs": [],
            "stateMutability": "nonpayable"
        },
        {
            "type": "function",
            "name": "name",
            "inputs": [],
            "outputs": [
                {
                    "name": "",
                    "type": "string",
                    "internalType": "string"
                }
            ],
            "stateMutability": "view"
        },
        {
            "type": "function",
            "name": "owner",
            "inputs": [],
            "outputs": [
                {
                    "name": "",
                    "type": "address",
                    "internalType": "address"
                }
            ],
            "stateMutability": "view"
        },
        {
            "type": "function",
            "name": "ownerOf",
            "inputs": [
                {
                    "name": "tokenId",
                    "type": "uint256",
                    "internalType": "uint256"
                }
            ],
            "outputs": [
                {
                    "name": "",
                    "type": "address",
                    "internalType": "address"
                }
            ],
            "stateMutability": "view"
        },
        {
            "type": "function",
            "name": "renounceOwnership",
            "inputs": [],
            "outputs": [],
            "stateMutability": "nonpayable"
        },
        {
            "type": "function",
            "name": "safeTransferFrom",
            "inputs": [
                {
                    "name": "from",
                    "type": "address",
                    "internalType": "address"
                },
                {
                    "name": "to",
                    "type": "address",
                    "internalType": "address"
                },
                {
                    "name": "tokenId",
                    "type": "uint256",
                    "internalType": "uint256"
                }
            ],
            "outputs": [],
            "stateMutability": "nonpayable"
        },
        {
            "type": "function",
            "name": "safeTransferFrom",
            "inputs": [
                {
                    "name": "from",
                    "type": "address",
                    "internalType": "address"
                },
                {
                    "name": "to",
                    "type": "address",
                    "internalType": "address"
                },
                {
                    "name": "tokenId",
                    "type": "uint256",
                    "internalType": "uint256"
                },
                {
                    "name": "data",
                    "type": "bytes",
                    "internalType": "bytes"
                }
            ],
            "outputs": [],
            "stateMutability": "nonpayable"
        },
        {
            "type": "function",
            "name": "setApprovalForAll",
            "inputs": [
                {
                    "name": "operator",
                    "type": "address",
                    "internalType": "address"
                },
                {
                    "name": "approved",
                    "type": "bool",
                    "internalType": "bool"
                }
            ],
            "outputs": [],
            "stateMutability": "nonpayable"
        },
        {
            "type": "function",
            "name": "supportsInterface",
            "inputs": [
                {
                    "name": "interfaceId",
                    "type": "bytes4",
                    "internalType": "bytes4"
                }
            ],
            "outputs": [
                {
                    "name": "",
                    "type": "bool",
                    "internalType": "bool"
                }
            ],
            "stateMutability": "view"
        },
        {
            "type": "function",
            "name": "symbol",
            "inputs": [],
            "outputs": [
                {
                    "name": "",
                    "type": "string",
                    "internalType": "string"
                }
            ],
            "stateMutability": "view"
        },
        {
            "type": "function",
            "name": "tokenURI",
            "inputs": [
                {
                    "name": "tokenId",
                    "type": "uint256",
                    "internalType": "uint256"
                }
            ],
            "outputs": [
                {
                    "name": "",
                    "type": "string",
                    "internalType": "string"
                }
            ],
            "stateMutability": "view"
        },
        {
            "type": "function",
            "name": "transferFrom",
            "inputs": [
                {
                    "name": "from",
                    "type": "address",
                    "internalType": "address"
                },
                {
                    "name": "to",
                    "type": "address",
                    "internalType": "address"
                },
                {
                    "name": "tokenId",
                    "type": "uint256",
                    "internalType": "uint256"
                }
            ],
            "outputs": [],
            "stateMutability": "nonpayable"
        },
        {
            "type": "function",
            "name": "transferOwnership",
            "inputs": [
                {
                    "name": "newOwner",
                    "type": "address",
                    "internalType": "address"
                }
            ],
            "outputs": [],
            "stateMutability": "nonpayable"
        },
        {
            "type": "event",
            "name": "Approval",
            "inputs": [
                {
                    "name": "owner",
                    "type": "address",
                    "indexed": true,
                    "internalType": "address"
                },
                {
                    "name": "approved",
                    "type": "address",
                    "indexed": true,
                    "internalType": "address"
                },
                {
                    "name": "tokenId",
                    "type": "uint256",
                    "indexed": true,
                    "internalType": "uint256"
                }
            ],
            "anonymous": false
        },
        {
            "type": "event",
            "name": "ApprovalForAll",
            "inputs": [
                {
                    "name": "owner",
                    "type": "address",
                    "indexed": true,
                    "internalType": "address"
                },
                {
                    "name": "operator",
                    "type": "address",
                    "indexed": true,
                    "internalType": "address"
                },
                {
                    "name": "approved",
                    "type": "bool",
                    "indexed": false,
                    "internalType": "bool"
                }
            ],
            "anonymous": false
        },
        {
            "type": "event",
            "name": "CreatedNFT",
            "inputs": [
                {
                    "name": "tokenId",
                    "type": "uint256",
                    "indexed": true,
                    "internalType": "uint256"
                }
            ],
            "anonymous": false
        },
        {
            "type": "event",
            "name": "OwnershipTransferred",
            "inputs": [
                {
                    "name": "previousOwner",
                    "type": "address",
                    "indexed": true,
                    "internalType": "address"
                },
                {
                    "name": "newOwner",
                    "type": "address",
                    "indexed": true,
                    "internalType": "address"
                }
            ],
            "anonymous": false
        },
        {
            "type": "event",
            "name": "Transfer",
            "inputs": [
                {
                    "name": "from",
                    "type": "address",
                    "indexed": true,
                    "internalType": "address"
                },
                {
                    "name": "to",
                    "type": "address",
                    "indexed": true,
                    "internalType": "address"
                },
                {
                    "name": "tokenId",
                    "type": "uint256",
                    "indexed": true,
                    "internalType": "uint256"
                }
            ],
            "anonymous": false
        },
        {
            "type": "error",
            "name": "ERC721IncorrectOwner",
            "inputs": [
                {
                    "name": "sender",
                    "type": "address",
                    "internalType": "address"
                },
                {
                    "name": "tokenId",
                    "type": "uint256",
                    "internalType": "uint256"
                },
                {
                    "name": "owner",
                    "type": "address",
                    "internalType": "address"
                }
            ]
        },
        {
            "type": "error",
            "name": "ERC721InsufficientApproval",
            "inputs": [
                {
                    "name": "operator",
                    "type": "address",
                    "internalType": "address"
                },
                {
                    "name": "tokenId",
                    "type": "uint256",
                    "internalType": "uint256"
                }
            ]
        },
        {
            "type": "error",
            "name": "ERC721InvalidApprover",
            "inputs": [
                {
                    "name": "approver",
                    "type": "address",
                    "internalType": "address"
                }
            ]
        },
        {
            "type": "error",
            "name": "ERC721InvalidOperator",
            "inputs": [
                {
                    "name": "operator",
                    "type": "address",
                    "internalType": "address"
                }
            ]
        },
        {
            "type": "error",
            "name": "ERC721InvalidOwner",
            "inputs": [
                {
                    "name": "owner",
                    "type": "address",
                    "internalType": "address"
                }
            ]
        },
        {
            "type": "error",
            "name": "ERC721InvalidReceiver",
            "inputs": [
                {
                    "name": "receiver",
                    "type": "address",
                    "internalType": "address"
                }
            ]
        },
        {
            "type": "error",
            "name": "ERC721InvalidSender",
            "inputs": [
                {
                    "name": "sender",
                    "type": "address",
                    "internalType": "address"
                }
            ]
        },
        {
            "type": "error",
            "name": "ERC721NonexistentToken",
            "inputs": [
                {
                    "name": "tokenId",
                    "type": "uint256",
                    "internalType": "uint256"
                }
            ]
        },
        {
            "type": "error",
            "name": "OwnableInvalidOwner",
            "inputs": [
                {
                    "name": "owner",
                    "type": "address",
                    "internalType": "address"
                }
            ]
        },
        {
            "type": "error",
            "name": "OwnableUnauthorizedAccount",
            "inputs": [
                {
                    "name": "account",
                    "type": "address",
                    "internalType": "address"
                }
            ]
        }
    ],
    "bytecode": {
        "object": "0x60806040523480156200001157600080fd5b50336040518060400160405280601081526020016f135bdb9ad95e551c9a5d9a584813919560821b8152506040518060400160405280600981526020016826aa29b2b9b9b4b7b760b91b81525081600090816200006f9190620001be565b5060016200007e8282620001be565b5050506001600160a01b038116620000b057604051631e4fbdf760e01b81526000600482015260240160405180910390fd5b620000bb81620000c7565b5060006007556200028a565b600680546001600160a01b038381166001600160a01b0319831681179093556040519116919082907f8be0079c531659141344cd1fd0a4f28419497f9722a3daafe3b4186f6b6457e090600090a35050565b634e487b7160e01b600052604160045260246000fd5b600181811c908216806200014457607f821691505b6020821081036200016557634e487b7160e01b600052602260045260246000fd5b50919050565b601f821115620001b957600081815260208120601f850160051c81016020861015620001945750805b601f850160051c820191505b81811015620001b557828155600101620001a0565b5050505b505050565b81516001600160401b03811115620001da57620001da62000119565b620001f281620001eb84546200012f565b846200016b565b602080601f8311600181146200022a5760008415620002115750858301515b600019600386901b1c1916600185901b178555620001b5565b600085815260208120601f198616915b828110156200025b578886015182559484019460019091019084016200023a565b50858210156200027a5787850151600019600388901b60f8161c191681555b5050505050600190811b01905550565b6111fa806200029a6000396000f3fe608060405234801561001057600080fd5b506004361061012c5760003560e01c80638082d093116100ad578063a22cb46511610071578063a22cb46514610283578063b88d4fde14610296578063c87b56dd146102a9578063e985e9c5146102bc578063f2fde38b146102cf57600080fd5b80638082d093146102145780638da5cb5b1461024457806395d89b411461025557806396fd26ef1461025d57806397bcfc6f1461027057600080fd5b806342842e0e116100f457806342842e0e146101c15780636352211e146101d45780636e02007d146101e757806370a08231146101f9578063715018a61461020c57600080fd5b806301ffc9a71461013157806306fdde0314610159578063081812fc1461016e578063095ea7b31461019957806323b872dd146101ae575b600080fd5b61014461013f366004610ce6565b6102e2565b60405190151581526020015b60405180910390f35b610161610334565b6040516101509190610d50565b61018161017c366004610d63565b6103c6565b6040516001600160a01b039091168152602001610150565b6101ac6101a7366004610d98565b6103ef565b005b6101ac6101bc366004610dc2565b6103fe565b6101ac6101cf366004610dc2565b61048e565b6101816101e2366004610d63565b6104ae565b6007545b604051908152602001610150565b6101eb610207366004610dfe565b6104b9565b6101ac610501565b610237610222366004610d63565b60009081526009602052604090205460ff1690565b6040516101509190610e19565b6006546001600160a01b0316610181565b610161610515565b6101ac61026b366004610ecd565b610524565b6101ac61027e366004610ecd565b610561565b6101ac610291366004610f16565b61058c565b6101ac6102a4366004610f52565b610597565b6101616102b7366004610d63565b6105ae565b6101446102ca366004610fce565b610650565b6101ac6102dd366004610dfe565b61067e565b60006001600160e01b031982166380ac58cd60e01b148061031357506001600160e01b03198216635b5e139f60e01b145b8061032e57506301ffc9a760e01b6001600160e01b03198316145b92915050565b60606000805461034390611001565b80601f016020809104026020016040519081016040528092919081815260200182805461036f90611001565b80156103bc5780601f10610391576101008083540402835291602001916103bc565b820191906000526020600020905b81548152906001019060200180831161039f57829003601f168201915b5050505050905090565b60006103d1826106bc565b506000828152600460205260409020546001600160a01b031661032e565b6103fa8282336106f5565b5050565b6001600160a01b03821661042d57604051633250574960e11b8152600060048201526024015b60405180910390fd5b600061043a838333610702565b9050836001600160a01b0316816001600160a01b031614610488576040516364283d7b60e01b81526001600160a01b0380861660048301526024820184905282166044820152606401610424565b50505050565b6104a983838360405180602001604052806000815250610597565b505050565b600061032e826106bc565b60006001600160a01b0382166104e5576040516322718ad960e21b815260006004820152602401610424565b506001600160a01b031660009081526003602052604090205490565b6105096107fb565b6105136000610828565b565b60606001805461034390611001565b61052d8161087a565b6007546000908152600960205260408120805460ff19166001835b021790555060075461055b90600161103b565b60075550565b61056a8161087a565b600754600090815260096020526040902080546001919060ff19168280610548565b6103fa3383836108a2565b6105a28484846103fe565b61048884848484610941565b60008181526008602052604090208054606091906105cb90611001565b80601f01602080910402602001604051908101604052809291908181526020018280546105f790611001565b80156106445780601f1061061957610100808354040283529160200191610644565b820191906000526020600020905b81548152906001019060200180831161062757829003601f168201915b50505050509050919050565b6001600160a01b03918216600090815260056020908152604080832093909416825291909152205460ff1690565b6106866107fb565b6001600160a01b0381166106b057604051631e4fbdf760e01b815260006004820152602401610424565b6106b981610828565b50565b6000818152600260205260408120546001600160a01b03168061032e57604051637e27328960e01b815260048101849052602401610424565b6104a98383836001610a6a565b6000828152600260205260408120546001600160a01b039081169083161561072f5761072f818486610b70565b6001600160a01b0381161561076d5761074c600085600080610a6a565b6001600160a01b038116600090815260036020526040902080546000190190555b6001600160a01b0385161561079c576001600160a01b0385166000908152600360205260409020805460010190555b60008481526002602052604080822080546001600160a01b0319166001600160a01b0389811691821790925591518793918516917fddf252ad1be2c89b69c2b068fc378daa952ba7f163c4a11628f55a4df523b3ef91a4949350505050565b6006546001600160a01b031633146105135760405163118cdaa760e01b8152336004820152602401610424565b600680546001600160a01b038381166001600160a01b0319831681179093556040519116919082907f8be0079c531659141344cd1fd0a4f28419497f9722a3daafe3b4186f6b6457e090600090a35050565b600754600090815260086020526040902061089582826110aa565b506106b933600754610bd4565b6001600160a01b0382166108d457604051630b61174360e31b81526001600160a01b0383166004820152602401610424565b6001600160a01b03838116600081815260056020908152604080832094871680845294825291829020805460ff191686151590811790915591519182527f17307eab39ab6107e8899845ad3d59bd9653f200f220920489ca2b5937696c31910160405180910390a3505050565b6001600160a01b0383163b1561048857604051630a85bd0160e11b81526001600160a01b0384169063150b7a029061098390339088908790879060040161116a565b6020604051808303816000875af19250505080156109be575060408051601f3d908101601f191682019092526109bb918101906111a7565b60015b610a27573d8080156109ec576040519150601f19603f3d011682016040523d82523d6000602084013e6109f1565b606091505b508051600003610a1f57604051633250574960e11b81526001600160a01b0385166004820152602401610424565b805181602001fd5b6001600160e01b03198116630a85bd0160e11b14610a6357604051633250574960e11b81526001600160a01b0385166004820152602401610424565b5050505050565b8080610a7e57506001600160a01b03821615155b15610b40576000610a8e846106bc565b90506001600160a01b03831615801590610aba5750826001600160a01b0316816001600160a01b031614155b8015610acd5750610acb8184610650565b155b15610af65760405163a9fbf51f60e01b81526001600160a01b0384166004820152602401610424565b8115610b3e5783856001600160a01b0316826001600160a01b03167f8c5be1e5ebec7d5bd14f71427d1e84f3dd0314c0f7b2291e5b200ac8c7c3b92560405160405180910390a45b505b5050600090815260046020526040902080546001600160a01b0319166001600160a01b0392909216919091179055565b610b7b838383610bee565b6104a9576001600160a01b038316610ba957604051637e27328960e01b815260048101829052602401610424565b60405163177e802f60e01b81526001600160a01b038316600482015260248101829052604401610424565b6103fa828260405180602001604052806000815250610c54565b60006001600160a01b03831615801590610c4c5750826001600160a01b0316846001600160a01b03161480610c285750610c288484610650565b80610c4c57506000828152600460205260409020546001600160a01b038481169116145b949350505050565b610c5e8383610c6b565b6104a96000848484610941565b6001600160a01b038216610c9557604051633250574960e11b815260006004820152602401610424565b6000610ca383836000610702565b90506001600160a01b038116156104a9576040516339e3563760e11b815260006004820152602401610424565b6001600160e01b0319811681146106b957600080fd5b600060208284031215610cf857600080fd5b8135610d0381610cd0565b9392505050565b6000815180845260005b81811015610d3057602081850181015186830182015201610d14565b506000602082860101526020601f19601f83011685010191505092915050565b602081526000610d036020830184610d0a565b600060208284031215610d7557600080fd5b5035919050565b80356001600160a01b0381168114610d9357600080fd5b919050565b60008060408385031215610dab57600080fd5b610db483610d7c565b946020939093013593505050565b600080600060608486031215610dd757600080fd5b610de084610d7c565b9250610dee60208501610d7c565b9150604084013590509250925092565b600060208284031215610e1057600080fd5b610d0382610d7c565b6020810160028310610e3b57634e487b7160e01b600052602160045260246000fd5b91905290565b634e487b7160e01b600052604160045260246000fd5b600067ffffffffffffffff80841115610e7257610e72610e41565b604051601f8501601f19908116603f01168101908282118183101715610e9a57610e9a610e41565b81604052809350858152868686011115610eb357600080fd5b858560208301376000602087830101525050509392505050565b600060208284031215610edf57600080fd5b813567ffffffffffffffff811115610ef657600080fd5b8201601f81018413610f0757600080fd5b610c4c84823560208401610e57565b60008060408385031215610f2957600080fd5b610f3283610d7c565b915060208301358015158114610f4757600080fd5b809150509250929050565b60008060008060808587031215610f6857600080fd5b610f7185610d7c565b9350610f7f60208601610d7c565b925060408501359150606085013567ffffffffffffffff811115610fa257600080fd5b8501601f81018713610fb357600080fd5b610fc287823560208401610e57565b91505092959194509250565b60008060408385031215610fe157600080fd5b610fea83610d7c565b9150610ff860208401610d7c565b90509250929050565b600181811c9082168061101557607f821691505b60208210810361103557634e487b7160e01b600052602260045260246000fd5b50919050565b8082018082111561032e57634e487b7160e01b600052601160045260246000fd5b601f8211156104a957600081815260208120601f850160051c810160208610156110835750805b601f850160051c820191505b818110156110a25782815560010161108f565b505050505050565b815167ffffffffffffffff8111156110c4576110c4610e41565b6110d8816110d28454611001565b8461105c565b602080601f83116001811461110d57600084156110f55750858301515b600019600386901b1c1916600185901b1785556110a2565b600085815260208120601f198616915b8281101561113c5788860151825594840194600190910190840161111d565b508582101561115a5787850151600019600388901b60f8161c191681555b5050505050600190811b01905550565b6001600160a01b038581168252841660208201526040810183905260806060820181905260009061119d90830184610d0a565b9695505050505050565b6000602082840312156111b957600080fd5b8151610d0381610cd056fea26469706673582212200ec649f34a71330d070a969b7b1fa519ee60e17d1b7c23f8dc3c672394426b6164736f6c63430008140033",
        "linkReferences": {}
    },
    "methodIdentifiers": {
        "approve(address,uint256)": "095ea7b3",
        "balanceOf(address)": "70a08231",
        "getApproved(uint256)": "081812fc",
        "getTokenCounter()": "6e02007d",
        "getTokenIdToState(uint256)": "8082d093",
        "isApprovedForAll(address,address)": "e985e9c5",
        "mintNftActive(string)": "96fd26ef",
        "mintNftComplete(string)": "97bcfc6f",
        "name()": "06fdde03",
        "owner()": "8da5cb5b",
        "ownerOf(uint256)": "6352211e",
        "renounceOwnership()": "715018a6",
        "safeTransferFrom(address,address,uint256)": "42842e0e",
        "safeTransferFrom(address,address,uint256,bytes)": "b88d4fde",
        "setApprovalForAll(address,bool)": "a22cb465",
        "supportsInterface(bytes4)": "01ffc9a7",
        "symbol()": "95d89b41",
        "tokenURI(uint256)": "c87b56dd",
        "transferFrom(address,address,uint256)": "23b872dd",
        "transferOwnership(address)": "f2fde38b"
    },
    "id": 41
}