{
    "abi": [
        {
            "type": "constructor",
            "inputs": [
                {
                    "name": "router",
                    "type": "address",
                    "internalType": "address"
                },
                {
                    "name": "link",
                    "type": "address",
                    "internalType": "address"
                }
            ],
            "stateMutability": "nonpayable"
        },
        {
            "type": "receive",
            "stateMutability": "payable"
        },
        {
            "type": "function",
            "name": "acceptOwnership",
            "inputs": [],
            "outputs": [],
            "stateMutability": "nonpayable"
        },
        {
            "type": "function",
            "name": "mint",
            "inputs": [
                {
                    "name": "destinationChainSelector",
                    "type": "uint64",
                    "internalType": "uint64"
                },
                {
                    "name": "receiver",
                    "type": "address",
                    "internalType": "address"
                },
                {
                    "name": "payFeesIn",
                    "type": "uint8",
                    "internalType": "enum SourceMinter.PayFeesIn"
                },
                {
                    "name": "tokenUri",
                    "type": "string",
                    "internalType": "string"
                }
            ],
            "outputs": [],
            "stateMutability": "nonpayable"
        },
        {
            "type": "function",
            "name": "owner",
            "inputs": [],
            "outputs": [
                {
                    "name": "",
                    "type": "address",
                    "internalType": "address"
                }
            ],
            "stateMutability": "view"
        },
        {
            "type": "function",
            "name": "transferOwnership",
            "inputs": [
                {
                    "name": "to",
                    "type": "address",
                    "internalType": "address"
                }
            ],
            "outputs": [],
            "stateMutability": "nonpayable"
        },
        {
            "type": "function",
            "name": "withdraw",
            "inputs": [
                {
                    "name": "beneficiary",
                    "type": "address",
                    "internalType": "address"
                }
            ],
            "outputs": [],
            "stateMutability": "nonpayable"
        },
        {
            "type": "function",
            "name": "withdrawToken",
            "inputs": [
                {
                    "name": "beneficiary",
                    "type": "address",
                    "internalType": "address"
                },
                {
                    "name": "token",
                    "type": "address",
                    "internalType": "address"
                }
            ],
            "outputs": [],
            "stateMutability": "nonpayable"
        },
        {
            "type": "event",
            "name": "MessageSent",
            "inputs": [
                {
                    "name": "messageId",
                    "type": "bytes32",
                    "indexed": false,
                    "internalType": "bytes32"
                }
            ],
            "anonymous": false
        },
        {
            "type": "event",
            "name": "OwnershipTransferRequested",
            "inputs": [
                {
                    "name": "from",
                    "type": "address",
                    "indexed": true,
                    "internalType": "address"
                },
                {
                    "name": "to",
                    "type": "address",
                    "indexed": true,
                    "internalType": "address"
                }
            ],
            "anonymous": false
        },
        {
            "type": "event",
            "name": "OwnershipTransferred",
            "inputs": [
                {
                    "name": "from",
                    "type": "address",
                    "indexed": true,
                    "internalType": "address"
                },
                {
                    "name": "to",
                    "type": "address",
                    "indexed": true,
                    "internalType": "address"
                }
            ],
            "anonymous": false
        },
        {
            "type": "error",
            "name": "FailedToWithdrawEth",
            "inputs": [
                {
                    "name": "owner",
                    "type": "address",
                    "internalType": "address"
                },
                {
                    "name": "target",
                    "type": "address",
                    "internalType": "address"
                },
                {
                    "name": "value",
                    "type": "uint256",
                    "internalType": "uint256"
                }
            ]
        }
    ],
    "bytecode": {
        "object": "0x60c060405234801561001057600080fd5b50604051610d9c380380610d9c83398101604081905261002f91610207565b33806000816100855760405162461bcd60e51b815260206004820152601860248201527f43616e6e6f7420736574206f776e657220746f207a65726f000000000000000060448201526064015b60405180910390fd5b600080546001600160a01b0319166001600160a01b03848116919091179091558116156100b5576100b581610142565b5050506001600160a01b03828116608081905290821660a081905260405163095ea7b360e01b8152600481019290925260001960248301529063095ea7b3906044016020604051808303816000875af1158015610116573d6000803e3d6000fd5b505050506040513d601f19601f8201168201806040525081019061013a919061023a565b505050610263565b336001600160a01b0382160361019a5760405162461bcd60e51b815260206004820152601760248201527f43616e6e6f74207472616e7366657220746f2073656c66000000000000000000604482015260640161007c565b600180546001600160a01b0319166001600160a01b0383811691821790925560008054604051929316917fed8889f560326eb138920d842192f0eb3dd22b4f139c87a2c57538e05bae12789190a350565b80516001600160a01b038116811461020257600080fd5b919050565b6000806040838503121561021a57600080fd5b610223836101eb565b9150610231602084016101eb565b90509250929050565b60006020828403121561024c57600080fd5b8151801515811461025c57600080fd5b9392505050565b60805160a051610b06610296600039600061039f01526000818161043e015281816104ea01526105820152610b066000f3fe6080604052600436106100595760003560e01c80633aeac4e11461006557806351cff8d91461008757806358bad867146100a757806379ba5097146100c75780638da5cb5b146100dc578063f2fde38b1461010857600080fd5b3661006057005b600080fd5b34801561007157600080fd5b50610085610080366004610816565b610128565b005b34801561009357600080fd5b506100856100a2366004610849565b610218565b3480156100b357600080fd5b506100856100c236600461086b565b6102b6565b3480156100d357600080fd5b5061008561063e565b3480156100e857600080fd5b50600054604080516001600160a01b039092168252519081900360200190f35b34801561011457600080fd5b50610085610123366004610849565b6106e8565b6101306106fc565b6040516370a0823160e01b81523060048201526000906001600160a01b038316906370a0823190602401602060405180830381865afa158015610177573d6000803e3d6000fd5b505050506040513d601f19601f8201168201806040525081019061019b919061091f565b60405163a9059cbb60e01b81526001600160a01b038581166004830152602482018390529192509083169063a9059cbb906044016020604051808303816000875af11580156101ee573d6000803e3d6000fd5b505050506040513d601f19601f820116820180604052508101906102129190610938565b50505050565b6102206106fc565b60405147906000906001600160a01b0384169083908381818185875af1925050503d806000811461026d576040519150601f19603f3d011682016040523d82523d6000602084013e610272565b606091505b50509050806102b157604051639d11f56360e01b81523360048201526001600160a01b0384166024820152604481018390526064015b60405180910390fd5b505050565b6040805160a081019091526001600160a01b03851660c08201526000908060e0810160405160208183030381529060405281526020013385856040516024016103019392919061095a565b60408051601f19818403018152919052602080820180516001600160e01b0316636aa2b37b60e01b17905290825201600060405190808252806020026020018201604052801561037757816020015b60408051808201909152600080825260208201528152602001906001900390816103505790505b50815260200160018660018111156103915761039161099a565b1461039d5760006103bf565b7f00000000000000000000000000000000000000000000000000000000000000005b6001600160a01b0316815260200161041f6040518060200160405280622dc6c081525060408051915160248084019190915281518084039091018152604490920190526020810180516001600160e01b03166397a657c960e01b17905290565b90526040516320487ded60e01b81529091506000906001600160a01b037f000000000000000000000000000000000000000000000000000000000000000016906320487ded90610475908a9086906004016109f6565b602060405180830381865afa158015610492573d6000803e3d6000fd5b505050506040513d601f19601f820116820180604052508101906104b6919061091f565b9050600060018660018111156104ce576104ce61099a565b0361056b576040516396f4e9f960e01b81526001600160a01b037f000000000000000000000000000000000000000000000000000000000000000016906396f4e9f990610521908b9087906004016109f6565b6020604051808303816000875af1158015610540573d6000803e3d6000fd5b505050506040513d601f19601f82011682018060405250810190610564919061091f565b9050610601565b6040516396f4e9f960e01b81526001600160a01b037f000000000000000000000000000000000000000000000000000000000000000016906396f4e9f99084906105bb908c9088906004016109f6565b60206040518083038185885af11580156105d9573d6000803e3d6000fd5b50505050506040513d601f19601f820116820180604052508101906105fe919061091f565b90505b6040518181527f54791b38f3859327992a1ca0590ad3c0f08feba98d1a4f56ab0dca74d203392a9060200160405180910390a15050505050505050565b6001546001600160a01b031633146106915760405162461bcd60e51b815260206004820152601660248201527526bab9ba10313290383937b837b9b2b21037bbb732b960511b60448201526064016102a8565b60008054336001600160a01b0319808316821784556001805490911690556040516001600160a01b0390921692909183917f8be0079c531659141344cd1fd0a4f28419497f9722a3daafe3b4186f6b6457e091a350565b6106f06106fc565b6106f981610751565b50565b6000546001600160a01b0316331461074f5760405162461bcd60e51b815260206004820152601660248201527527b7363c9031b0b63630b1363290313c9037bbb732b960511b60448201526064016102a8565b565b336001600160a01b038216036107a95760405162461bcd60e51b815260206004820152601760248201527f43616e6e6f74207472616e7366657220746f2073656c6600000000000000000060448201526064016102a8565b600180546001600160a01b0319166001600160a01b0383811691821790925560008054604051929316917fed8889f560326eb138920d842192f0eb3dd22b4f139c87a2c57538e05bae12789190a350565b80356001600160a01b038116811461081157600080fd5b919050565b6000806040838503121561082957600080fd5b610832836107fa565b9150610840602084016107fa565b90509250929050565b60006020828403121561085b57600080fd5b610864826107fa565b9392505050565b60008060008060006080868803121561088357600080fd5b853567ffffffffffffffff808216821461089c57600080fd5b8196506108ab602089016107fa565b955060408801359150600282106108c157600080fd5b909350606087013590808211156108d757600080fd5b818801915088601f8301126108eb57600080fd5b8135818111156108fa57600080fd5b89602082850101111561090c57600080fd5b9699959850939650602001949392505050565b60006020828403121561093157600080fd5b5051919050565b60006020828403121561094a57600080fd5b8151801515811461086457600080fd5b6001600160a01b03841681526040602082018190528101829052818360608301376000818301606090810191909152601f909201601f1916010192915050565b634e487b7160e01b600052602160045260246000fd5b6000815180845260005b818110156109d6576020818501810151868301820152016109ba565b506000602082860101526020601f19601f83011685010191505092915050565b6000604067ffffffffffffffff8516835260208181850152845160a083860152610a2360e08601826109b0565b905081860151603f1980878403016060880152610a4083836109b0565b88860151888203830160808a01528051808352908601945060009350908501905b80841015610a9357845180516001600160a01b0316835286015186830152938501936001939093019290860190610a61565b5060608901516001600160a01b031660a08901526080890151888203830160c08a01529550610ac281876109b0565b9a995050505050505050505056fea2646970667358221220707887efdbaad9d9c0c5d94961b1e4897f3e1fec40f7b0561ad35e9547141cb964736f6c63430008140033",
        "linkReferences": {}
    },
    "methodIdentifiers": {
        "acceptOwnership()": "79ba5097",
        "mint(uint64,address,uint8,string)": "58bad867",
        "owner()": "8da5cb5b",
        "transferOwnership(address)": "f2fde38b",
        "withdraw(address)": "51cff8d9",
        "withdrawToken(address,address)": "3aeac4e1"
    },
    "id": 56
}